:08000000803102288731FD2F39
:10058C002000220821042004031908008030A20650
:10059C0008007808F0007908F100F2018E30FB00B9
:1005AC007B08F300F401833175237008F80071089F
:1005BC00F9007208FA000800F401F50171087502DF
:1005CC00031DEA2A70087402031808000330F300B4
:1005DC009730F200F20BF02AF30BF02A00320130C4
:1005EC00F4070030F53DE42AFD01F91F042BF8094E
:1005FC00F909F80A0319F90AFD01FD0A7808F00057
:10060C007908F100F2018E30FB007B08F3007D08C5
:10061C00FC007C08F400833175237008F800710825
:10062C00F9007208FA000800F4017408F200F301F2
:10063C0071087302031D242B700872020318080042
:10064C00F5011930750203183C2B6830F300E430C7
:10065C00F200F20B2F2BF30B2F2B00000130F200CA
:10066C007208F50719307502031C2B2B0130F200B0
:10067C007208F4071B2B21008E01733099008E1524
:10068C001D309D0090309E0023008E1520009C177D
:10069C000E303D00A50080302C0099006330200006
:1006AC009B0014302C0098000130F0000030F10059
:1006BC0083311A23833132302C0098000130F00042
:1006CC000030F10083311A23833150302C00980014
:1006DC000130F0000030F10083311A230800730858
:1006EC0003197D2B720871047004031D8E2B0030CE
:1006FC00F0000030F1000030F20008000130F5008D
:10070C007508F3070130F236F10CF00C890B892BCC
:10071C00FE3072050319A72B842B0130F5007508E8
:10072C00F3070130F007003003180130F1070030F7
:10073C0003180130F2070130F236F10CF00C890B82
:10074C00A22BFF3072050319B42B932B0130F3024B
:10075C000130F035F10DF20D890BAF2BF11BBA2BDB
:10076C00023073020318AC2B7318C22BFF30F00548
:10077C007F30F105FF30F2050310F30C7308F50020
:10078C00F601F7011030F535F60DF70D890BC92B75
:10079C007508F0047608F1047708F204740803195C
:1007AC000800F217080020003008B4003108B5002A
:1007BC003208B6000310350D360DB7003708BD00F2
:1007CC003D08031DF22B0030B3000030B2000030A6
:1007DC00B1000030B00008003008B4003108B5009A
:1007EC003208B6001730B636B50CB40C890BF92BA1
:1007FC003408B7003708B800B117FF30B005FF3028
:10080C00B1050030B2053008B9003108BA00320821
:10081C00BB00BC018E30BD02BD1F302C3D08803AA0
:10082C008F3E0318222C0030B3000030B200003091
:10083C00B1000030B00008000130BC36BB0CBA0C63
:10084C00B90C890B232C0130B4003408BD070319F3
:10085C00492C222C18303D02031C462C0030B300CE
:10086C000030B2000030B1000030B00008000130A0
:10087C00B935BA0DBB0DBC0D890B3E2C0130BD0238
:10088C003D08031D3D2C38080319572CB909BA092A
:10089C00BB09BC09B90A0319BA0A0319BB0A031923
:1008AC00BC0A3C08B3003B08B2003A08B100390856
:1008BC00B000080020003308B6003408B700350833
:1008CC00B8000310370D380DB9003908BE003E08CA
:1008DC00031D772C0030B0000030B1000030B200A6
:1008EC0008003008B6003108B7003208B800031011
:1008FC00370D380DB9003908BF003F08031D8D2C8A
:10090C000030B0000030B1000030B2000800003000
:10091C00BB000030BC000030BD0089303F07B60082
:10092C003608BE023308B6003408B7003508B800E4
:10093C001030B836B70CB60C890B9F2C3608B900A2
:10094C003908BF003008B6003108B7003208B800CB
:10095C001030B836B70CB60C890BAF2C3608B90072
:10096C003908BF068030B6003608BF05B417FF3013
:10097C00B305FF30B4050030B505B117FF30B00535
:10098C00FF30B1050030B2051830B6003608BA0099
:10099C000130BB35BC0DBD0D890BCF2C3208350297
:1009AC00031DDE2C31083402031DDE2C300833020B
:1009BC00031CE72C3008B3023108B43B3208B53BBA
:1009CC003B140130B335B40DB50D890BE82C013057
:1009DC00BA02031DCE2C3B08F0003C08F1003D0888
:1009EC00F2003E08B6003608F3003F08B70037089F
:1009FC00F4008331752370082000B0007108B10039
:100A0C007208B200080078082000A0007908A10044
:100A1C007A08A2000310210D220DA3002308A400C4
:100A2C002408031D202D0030F8000030F9000030A0
:100A3C00FA0008007B08A0007C08A1007D08A20039
:100A4C000310210D220DA3002308A9002908031D62
:100A5C00362D0030F8000030F9000030FA000800A4
:100A6C0029087B3EA0002008A4077808A00079087C
:100A7C00A1007A08A2001030A236A10CA00C890BA0
:100A8C00422D2008A3002308A9007B08A0007C08A5
:100A9C00A1007D08A2001030A236A10CA00C890B7D
:100AAC00522D2008A3002308A9068030A00020089E
:100ABC00A905F917FC17FF30FB05FF30FC050030CA
:100ACC00FD050030A5000030A6000030A70007305F
:100ADC00A0002008A800781C792D7B08A5077C08AD
:100AEC00A63D7D08A73D0130FA36F90CF80C890BB0
:100AFC007A2D0130FB35FC0DFD0D890B802D01305D
:100B0C00A802031D712D0930A0002008A800781C34
:100B1C00952D7B08A5077C08A63D7D08A73D0130D7
:100B2C00FA36F90CF80C890B962D0130A736A60C69
:100B3C00A50C890B9C2D0130A802031D8D2D2508B9
:100B4C00F0002608F1002708F2002408A000200875
:100B5C00F3002908A1002108F400833175237008E3
:100B6C00F8007108F9007208FA0008002000230848
:100B7C00A9002408AA002508AB0003102A0D2B0D90
:100B8C00AC002C08AF002608A9002708AA002808EA
:100B9C00AB0003102A0D2B0DAC002C08AE002F0857
:100BAC000319E42D2E082F020318EB2D2F03FF3A07
:100BBC002E07A90019302902031CEB2D2608A300CF
:100BCC002708A4002808A50008002E08031908000F
:100BDC002F082E020318FA2D2E03FF3A2F07A90017
:100BEC0019302902031808000630A9002908AD00A5
:100BFC00A51BAD17A81B2D17A417FF30A305FF309D
:100C0C00A4050030A505A717FF30A605FF30A705E2
:100C1C000030A8052E082F020318362E0130A635F9
:100C2C00A70DA80D890B152E0130AE022E082F062C
:100C3C000319312E0130AD022D0807390319312E5D
:100C4C00142E0130A536A40CA30C890B282E0130D0
:100C5C00A9002908AF072F082E0603195B2E272E93
:100C6C002F082E0203185B2E0130A335A40DA50D01
:100C7C00890B3B2E0130AF022E082F060319572E7D
:100C8C000130AD022D0807390319572E3A2E0130C9
:100C9C00A836A70CA60C890B4E2E0130A9002908EA
:100CAC00AE072F082E06031D4D2EAD1F6D2EFF30E7
:100CBC00A306FF30A406FF30A5060130A3070030C1
:100CCC0003180130A407003003180130A5072D1FAD
:100CDC007F2EFF30A606FF30A706FF30A806013096
:100CEC00A607003003180130A707003003180130A5
:100CFC00A807AD012308A6072408A73D2508A83D91
:100D0C00A81F9A2EFF30A606FF30A706FF30A806B4
:100D1C000130A607003003180130A7070030031874
:100D2C000130A807AD01AD0A2608F0002708F10034
:100D3C002808F2002F08A9002908F3002D08AA00A2
:100D4C002A08F4008331752370082000A300710871
:100D5C00A4007208A500080088302000CB001330D6
:100D6C00CC000030D5000030D4000030D30000306F
:100D7C00D200CD01D101D601D70183314123863177
:100D8C0021009D149D18C82E1B082000C000C10115
:100D9C0021001C082000C200C3014208C300C2018C
:100DAC0040084207F8004108433DF9008231FA221D
:100DBC00863178082000C5007908C6007A08C7007B
:100DCC000030B0008030B1004430B2000030F80088
:100DDC00A030F9004030FA004508FB004608FC0042
:100DEC004708FD0085310925863178082000B300BD
:100DFC007908B4007A08B50084316024863120006B
:100E0C003008CE003108CF003208D0000030A300EB
:100E1C00A030A4004030A5004E08A0004F08A1004F
:100E2C005008A2008231C622863120002008A6007C
:100E3C002108A7002208A8008531BC258631200096
:100E4C002308B0002408B1002508B2004030F80097
:100E5C001C30F9004630FA004E08FB004F08FC002D
:100E6C005008FD0085310925863178082000B30033
:100E7C007908B4007A08B5008431602486312000EA
:100E8C003008C8003108C9003208CA004C08F90003
:100E9C004B08F8008231CF22863178082000A00060
:100EAC007908A1007A08A2008231C622863120007E
:100EBC002008A6002108A7002208A8004808A300C3
:100ECC004908A4004A08A5008531BC2586312000BC
:100EDC002308B0002408B1002508B2008331D923BF
:100EEC00863120003308D5003208D4003108D300F5
:100EFC003008D200D51B922F5508031D8F2F540894
:100F0C00031D8F2F5308031D8F2F01305202031C1A
:100F1C00922FCD01CD0A9E2FCD01D209D309D40930
:100F2C00D509D20A0319D30A0319D40A0319D50A0D
:100F3C00D51BAD2F5508031DB02F5408031DB02F22
:100F4C005308031DB02F643052020318B02FD10187
:100F5C00D10AC42FD51BBE2F5508031DC02F540812
:100F6C00031DC02FE83052020330533B0318C02F2F
:100F7C000530C12F0A30C0004008D1004D03031DBD
:100F8C00DF2F51085607D60057080318570AD70009
:100F9C005708803AC00080304002031DD72F6530BF
:100FAC005602031CF12F64302000D6000030D7000D
:100FBC00F12F5108C000C101C009C109C00A0319B1
:100FCC00C10A56084007D6005708413DD700D71F25
:100FDC00F12FD601D701200056082C009800323092
:100FEC00F0000030F1008231E2228631C62E200062
:040FFC008631B22E5A
:020000040001F9
:06000E00BC39FF3F9F3FDB
:00000001FF
